{
  "contractName": "Access",
  "abi": [
    {
      "constant": true,
      "inputs": [],
      "name": "getUsers",
      "outputs": [
        {
          "name": "",
          "type": "uint256[]"
        },
        {
          "name": "",
          "type": "uint256[]"
        }
      ],
      "payable": false,
      "stateMutability": "view",
      "type": "function",
      "signature": "0x00ce8e3e"
    },
    {
      "constant": true,
      "inputs": [
        {
          "name": "_uid",
          "type": "uint256"
        }
      ],
      "name": "userToOwner",
      "outputs": [
        {
          "name": "",
          "type": "address"
        }
      ],
      "payable": false,
      "stateMutability": "view",
      "type": "function",
      "signature": "0x0d7b081c"
    },
    {
      "constant": false,
      "inputs": [
        {
          "name": "_name",
          "type": "string"
        },
        {
          "name": "_password",
          "type": "string"
        }
      ],
      "name": "loginUser",
      "outputs": [],
      "payable": false,
      "stateMutability": "nonpayable",
      "type": "function",
      "signature": "0x22ce12e5"
    },
    {
      "constant": true,
      "inputs": [
        {
          "name": "_uid",
          "type": "uint256"
        }
      ],
      "name": "isLoggedIn",
      "outputs": [
        {
          "name": "",
          "type": "string"
        }
      ],
      "payable": false,
      "stateMutability": "view",
      "type": "function",
      "signature": "0x26344c8b"
    },
    {
      "constant": true,
      "inputs": [
        {
          "name": "",
          "type": "uint256"
        }
      ],
      "name": "users",
      "outputs": [
        {
          "name": "kname",
          "type": "uint256"
        },
        {
          "name": "kpassword",
          "type": "uint256"
        },
        {
          "name": "remainingtime",
          "type": "uint32"
        },
        {
          "name": "status",
          "type": "uint8"
        },
        {
          "name": "role",
          "type": "uint8"
        }
      ],
      "payable": false,
      "stateMutability": "view",
      "type": "function",
      "signature": "0x365b98b2"
    },
    {
      "constant": true,
      "inputs": [
        {
          "name": "_uid",
          "type": "uint256"
        },
        {
          "name": "_patientId",
          "type": "uint256"
        }
      ],
      "name": "getPatientDetails",
      "outputs": [
        {
          "name": "",
          "type": "string"
        },
        {
          "name": "",
          "type": "string"
        },
        {
          "name": "",
          "type": "string"
        },
        {
          "name": "",
          "type": "uint32"
        },
        {
          "name": "",
          "type": "uint8"
        }
      ],
      "payable": false,
      "stateMutability": "view",
      "type": "function",
      "signature": "0x37721e7a"
    },
    {
      "constant": true,
      "inputs": [
        {
          "name": "_uid",
          "type": "uint256"
        },
        {
          "name": "_attachementId",
          "type": "uint256"
        }
      ],
      "name": "getAttachementDetails",
      "outputs": [
        {
          "name": "",
          "type": "uint32"
        },
        {
          "name": "",
          "type": "string"
        },
        {
          "name": "",
          "type": "uint8"
        },
        {
          "name": "",
          "type": "uint8"
        }
      ],
      "payable": false,
      "stateMutability": "view",
      "type": "function",
      "signature": "0x37cda529"
    },
    {
      "constant": true,
      "inputs": [
        {
          "name": "",
          "type": "uint256"
        }
      ],
      "name": "attachementToPatient",
      "outputs": [
        {
          "name": "",
          "type": "uint256"
        }
      ],
      "payable": false,
      "stateMutability": "view",
      "type": "function",
      "signature": "0x3905e967"
    },
    {
      "constant": false,
      "inputs": [
        {
          "name": "_uid",
          "type": "uint256"
        },
        {
          "name": "_patientId",
          "type": "uint256"
        },
        {
          "name": "_status",
          "type": "uint8"
        }
      ],
      "name": "updatePatient",
      "outputs": [],
      "payable": false,
      "stateMutability": "nonpayable",
      "type": "function",
      "signature": "0x3e68d893"
    },
    {
      "constant": true,
      "inputs": [
        {
          "name": "_uid",
          "type": "uint256"
        }
      ],
      "name": "getLocalUsers",
      "outputs": [
        {
          "name": "",
          "type": "uint256[]"
        }
      ],
      "payable": false,
      "stateMutability": "view",
      "type": "function",
      "signature": "0x47f43933"
    },
    {
      "constant": true,
      "inputs": [
        {
          "name": "",
          "type": "uint256"
        }
      ],
      "name": "userPatientCount",
      "outputs": [
        {
          "name": "",
          "type": "uint256"
        }
      ],
      "payable": false,
      "stateMutability": "view",
      "type": "function",
      "signature": "0x4c2024ef"
    },
    {
      "constant": true,
      "inputs": [
        {
          "name": "",
          "type": "uint256"
        }
      ],
      "name": "attachements",
      "outputs": [
        {
          "name": "creationTime",
          "type": "uint32"
        },
        {
          "name": "hash",
          "type": "string"
        },
        {
          "name": "typea",
          "type": "uint8"
        },
        {
          "name": "status",
          "type": "uint8"
        }
      ],
      "payable": false,
      "stateMutability": "view",
      "type": "function",
      "signature": "0x5291fb31"
    },
    {
      "constant": true,
      "inputs": [
        {
          "name": "_uid",
          "type": "uint256"
        },
        {
          "name": "_patientId",
          "type": "uint256"
        }
      ],
      "name": "getAttachementsByPatient",
      "outputs": [
        {
          "name": "",
          "type": "uint256[]"
        }
      ],
      "payable": false,
      "stateMutability": "view",
      "type": "function",
      "signature": "0x5d7d25e1"
    },
    {
      "constant": false,
      "inputs": [
        {
          "name": "_uid",
          "type": "uint256"
        },
        {
          "name": "_patientId",
          "type": "uint256"
        },
        {
          "name": "_type",
          "type": "uint8"
        }
      ],
      "name": "createAttachement",
      "outputs": [],
      "payable": false,
      "stateMutability": "nonpayable",
      "type": "function",
      "signature": "0x600967a3"
    },
    {
      "constant": true,
      "inputs": [
        {
          "name": "_uid",
          "type": "uint256"
        },
        {
          "name": "_userId",
          "type": "uint256"
        }
      ],
      "name": "getUserDetails",
      "outputs": [
        {
          "name": "",
          "type": "uint256"
        },
        {
          "name": "",
          "type": "uint256"
        },
        {
          "name": "",
          "type": "uint32"
        },
        {
          "name": "",
          "type": "uint8"
        },
        {
          "name": "",
          "type": "uint8"
        }
      ],
      "payable": false,
      "stateMutability": "view",
      "type": "function",
      "signature": "0x616c65f2"
    },
    {
      "constant": true,
      "inputs": [],
      "name": "nbUsers",
      "outputs": [
        {
          "name": "",
          "type": "uint256"
        }
      ],
      "payable": false,
      "stateMutability": "view",
      "type": "function",
      "signature": "0x6bb355c8"
    },
    {
      "constant": true,
      "inputs": [
        {
          "name": "_uid",
          "type": "uint256"
        }
      ],
      "name": "getPatientsForUser",
      "outputs": [
        {
          "name": "",
          "type": "uint256[]"
        }
      ],
      "payable": false,
      "stateMutability": "view",
      "type": "function",
      "signature": "0x6ebd4f04"
    },
    {
      "constant": true,
      "inputs": [
        {
          "name": "",
          "type": "uint256"
        }
      ],
      "name": "patientToUser",
      "outputs": [
        {
          "name": "",
          "type": "uint256"
        }
      ],
      "payable": false,
      "stateMutability": "view",
      "type": "function",
      "signature": "0x7d4d3212"
    },
    {
      "constant": true,
      "inputs": [
        {
          "name": "",
          "type": "uint256"
        }
      ],
      "name": "patients",
      "outputs": [
        {
          "name": "name",
          "type": "string"
        },
        {
          "name": "surname",
          "type": "string"
        },
        {
          "name": "dateOfBirth",
          "type": "string"
        },
        {
          "name": "creationTime",
          "type": "uint32"
        },
        {
          "name": "status",
          "type": "uint8"
        }
      ],
      "payable": false,
      "stateMutability": "view",
      "type": "function",
      "signature": "0x93119a83"
    },
    {
      "constant": false,
      "inputs": [
        {
          "name": "_uid",
          "type": "uint256"
        },
        {
          "name": "_attachementId",
          "type": "uint256"
        },
        {
          "name": "hash",
          "type": "string"
        }
      ],
      "name": "updateAttachement",
      "outputs": [],
      "payable": false,
      "stateMutability": "nonpayable",
      "type": "function",
      "signature": "0xadf88c4a"
    },
    {
      "constant": false,
      "inputs": [
        {
          "name": "_uid",
          "type": "uint256"
        },
        {
          "name": "_name",
          "type": "string"
        },
        {
          "name": "_surname",
          "type": "string"
        },
        {
          "name": "_dob",
          "type": "string"
        }
      ],
      "name": "createPatient",
      "outputs": [],
      "payable": false,
      "stateMutability": "nonpayable",
      "type": "function",
      "signature": "0xbd508785"
    },
    {
      "constant": true,
      "inputs": [],
      "name": "nbPatients",
      "outputs": [
        {
          "name": "",
          "type": "uint256"
        }
      ],
      "payable": false,
      "stateMutability": "view",
      "type": "function",
      "signature": "0xc68028a0"
    },
    {
      "constant": false,
      "inputs": [
        {
          "name": "_uid",
          "type": "uint256"
        }
      ],
      "name": "logoutUser",
      "outputs": [],
      "payable": false,
      "stateMutability": "nonpayable",
      "type": "function",
      "signature": "0xcbf980e9"
    },
    {
      "constant": false,
      "inputs": [
        {
          "name": "_name",
          "type": "string"
        },
        {
          "name": "_password",
          "type": "string"
        },
        {
          "name": "_role",
          "type": "uint8"
        }
      ],
      "name": "createUser",
      "outputs": [],
      "payable": false,
      "stateMutability": "nonpayable",
      "type": "function",
      "signature": "0xe8870f8b"
    },
    {
      "anonymous": false,
      "inputs": [
        {
          "indexed": false,
          "name": "id",
          "type": "uint256"
        },
        {
          "indexed": true,
          "name": "patientId",
          "type": "uint256"
        },
        {
          "indexed": false,
          "name": "typea",
          "type": "uint8"
        }
      ],
      "name": "NewAttachement",
      "type": "event",
      "signature": "0x0af89958768d306ea5f5da69236f760db56554886416af0463e500f240014577"
    },
    {
      "anonymous": false,
      "inputs": [
        {
          "indexed": true,
          "name": "id",
          "type": "uint256"
        },
        {
          "indexed": true,
          "name": "patientId",
          "type": "uint256"
        }
      ],
      "name": "ModifiedAttachement",
      "type": "event",
      "signature": "0xfbe20afbd9bba79c5fddfb06009244e2f1001ad55e70989d13dfd6b6e86e156b"
    },
    {
      "anonymous": false,
      "inputs": [
        {
          "indexed": false,
          "name": "id",
          "type": "uint256"
        },
        {
          "indexed": false,
          "name": "_uid",
          "type": "uint256"
        }
      ],
      "name": "NewPatient",
      "type": "event",
      "signature": "0x1b0a8ccb6c7e989ad0541a25277eb5bbad024ba0936c34028745605727f7c283"
    },
    {
      "anonymous": false,
      "inputs": [
        {
          "indexed": false,
          "name": "patientId",
          "type": "uint256"
        },
        {
          "indexed": false,
          "name": "status",
          "type": "uint8"
        }
      ],
      "name": "MofifiedPatient",
      "type": "event",
      "signature": "0x1d6411f23855fc73e4771269749b98d7a31416167533feb83401ef4d842aeef0"
    },
    {
      "anonymous": false,
      "inputs": [
        {
          "indexed": false,
          "name": "userId",
          "type": "uint256"
        },
        {
          "indexed": false,
          "name": "name",
          "type": "string"
        },
        {
          "indexed": false,
          "name": "status",
          "type": "uint8"
        }
      ],
      "name": "NewUser",
      "type": "event",
      "signature": "0xea077175713e79dc43572360e83f661e6276ac4d455800fcd5c3a7165404d4ba"
    },
    {
      "anonymous": false,
      "inputs": [
        {
          "indexed": false,
          "name": "userId",
          "type": "uint256"
        },
        {
          "indexed": false,
          "name": "time",
          "type": "uint32"
        },
        {
          "indexed": false,
          "name": "role",
          "type": "uint8"
        }
      ],
      "name": "LoginUser",
      "type": "event",
      "signature": "0x0b7cea3de93a5a9ad0ccfb0e7b524ac9c8a4ea6c17e9b68e985b4ee715a5fbea"
    },
    {
      "anonymous": false,
      "inputs": [
        {
          "indexed": false,
          "name": "userId",
          "type": "uint256"
        }
      ],
      "name": "LogoutUser",
      "type": "event",
      "signature": "0xba8da1901792aeed9dba7ab7bdefa7356f8641e29cd1d9281571c909ae81a05c"
    }
  ],
  "bytecode": "0x6080604052610e10600455336000806101000a81548173ffffffffffffffffffffffffffffffffffffffff021916908373ffffffffffffffffffffffffffffffffffffffff16021790555061341c806100596000396000f30060806040526004361061013d576000357c0100000000000000000000000000000000000000000000000000000000900463ffffffff168062ce8e3e146101425780630d7b081c146101f657806322ce12e51461026357806326344c8b14610312578063365b98b2146103b857806337721e7a1461043d57806337cda529146105ed5780633905e967146106da5780633e68d8931461071b57806347f439331461075f5780634c2024ef146107e15780635291fb31146108225780635d7d25e114610905578063600967a314610991578063616c65f2146109d55780636bb355c814610a645780636ebd4f0414610a8f5780637d4d321214610b1157806393119a8314610b52578063adf88c4a14610cf8578063bd50878514610d75578063c68028a014610e74578063cbf980e914610e9f578063e8870f8b14610ecc575b600080fd5b34801561014e57600080fd5b50610157610f88565b604051808060200180602001838103835285818151815260200191508051906020019060200280838360005b8381101561019e578082015181840152602081019050610183565b50505050905001838103825284818151815260200191508051906020019060200280838360005b838110156101e05780820151818401526020810190506101c5565b5050505090500194505050505060405180910390f35b34801561020257600080fd5b50610221600480360381019080803590602001909291905050506110a4565b604051808273ffffffffffffffffffffffffffffffffffffffff1673ffffffffffffffffffffffffffffffffffffffff16815260200191505060405180910390f35b34801561026f57600080fd5b50610310600480360381019080803590602001908201803590602001908080601f0160208091040260200160405190810160405280939291908181526020018383808284378201915050505050509192919290803590602001908201803590602001908080601f01602080910402602001604051908101604052809392919081815260200183838082843782019150505050505091929192905050506110d7565b005b34801561031e57600080fd5b5061033d6004803603810190808035906020019092919050505061149e565b6040518080602001828103825283818151815260200191508051906020019080838360005b8381101561037d578082015181840152602081019050610362565b50505050905090810190601f1680156103aa5780820380516001836020036101000a031916815260200191505b509250505060405180910390f35b3480156103c457600080fd5b506103e36004803603810190808035906020019092919050505061156e565b604051808681526020018581526020018463ffffffff1663ffffffff16815260200183600281111561041157fe5b60ff16815260200182600881111561042557fe5b60ff1681526020019550505050505060405180910390f35b34801561044957600080fd5b5061047260048036038101908080359060200190929190803590602001909291905050506115dd565b604051808060200180602001806020018663ffffffff1663ffffffff16815260200185600a8111156104a057fe5b60ff168152602001848103845289818151815260200191508051906020019080838360005b838110156104e05780820151818401526020810190506104c5565b50505050905090810190601f16801561050d5780820380516001836020036101000a031916815260200191505b50848103835288818151815260200191508051906020019080838360005b8381101561054657808201518184015260208101905061052b565b50505050905090810190601f1680156105735780820380516001836020036101000a031916815260200191505b50848103825287818151815260200191508051906020019080838360005b838110156105ac578082015181840152602081019050610591565b50505050905090810190601f1680156105d95780820380516001836020036101000a031916815260200191505b509850505050505050505060405180910390f35b3480156105f957600080fd5b506106226004803603810190808035906020019092919080359060200190929190505050611945565b604051808563ffffffff1663ffffffff1681526020018060200184600781111561064857fe5b60ff16815260200183600281111561065c57fe5b60ff168152602001828103825285818151815260200191508051906020019080838360005b8381101561069c578082015181840152602081019050610681565b50505050905090810190601f1680156106c95780820380516001836020036101000a031916815260200191505b509550505050505060405180910390f35b3480156106e657600080fd5b5061070560048036038101908080359060200190929190505050611b5f565b6040518082815260200191505060405180910390f35b34801561072757600080fd5b5061075d6004803603810190808035906020019092919080359060200190929190803560ff169060200190929190505050611b77565b005b34801561076b57600080fd5b5061078a60048036038101908080359060200190929190505050611cc3565b6040518080602001828103825283818151815260200191508051906020019060200280838360005b838110156107cd5780820151818401526020810190506107b2565b505050509050019250505060405180910390f35b3480156107ed57600080fd5b5061080c60048036038101908080359060200190929190505050611ee8565b6040518082815260200191505060405180910390f35b34801561082e57600080fd5b5061084d60048036038101908080359060200190929190505050611f00565b604051808563ffffffff1663ffffffff1681526020018060200184600781111561087357fe5b60ff16815260200183600281111561088757fe5b60ff168152602001828103825285818151815260200191508051906020019080838360005b838110156108c75780820151818401526020810190506108ac565b50505050905090810190601f1680156108f45780820380516001836020036101000a031916815260200191505b509550505050505060405180910390f35b34801561091157600080fd5b5061093a6004803603810190808035906020019092919080359060200190929190505050612001565b6040518080602001828103825283818151815260200191508051906020019060200280838360005b8381101561097d578082015181840152602081019050610962565b505050509050019250505060405180910390f35b34801561099d57600080fd5b506109d36004803603810190808035906020019092919080359060200190929190803560ff169060200190929190505050612175565b005b3480156109e157600080fd5b50610a0a6004803603810190808035906020019092919080359060200190929190505050612408565b604051808681526020018581526020018463ffffffff1663ffffffff168152602001836002811115610a3857fe5b60ff168152602001826008811115610a4c57fe5b60ff1681526020019550505050505060405180910390f35b348015610a7057600080fd5b50610a796125ac565b6040518082815260200191505060405180910390f35b348015610a9b57600080fd5b50610aba600480360381019080803590602001909291905050506125b9565b6040518080602001828103825283818151815260200191508051906020019060200280838360005b83811015610afd578082015181840152602081019050610ae2565b505050509050019250505060405180910390f35b348015610b1d57600080fd5b50610b3c6004803603810190808035906020019092919050505061272c565b6040518082815260200191505060405180910390f35b348015610b5e57600080fd5b50610b7d60048036038101908080359060200190929190505050612744565b604051808060200180602001806020018663ffffffff1663ffffffff16815260200185600a811115610bab57fe5b60ff168152602001848103845289818151815260200191508051906020019080838360005b83811015610beb578082015181840152602081019050610bd0565b50505050905090810190601f168015610c185780820380516001836020036101000a031916815260200191505b50848103835288818151815260200191508051906020019080838360005b83811015610c51578082015181840152602081019050610c36565b50505050905090810190601f168015610c7e5780820380516001836020036101000a031916815260200191505b50848103825287818151815260200191508051906020019080838360005b83811015610cb7578082015181840152602081019050610c9c565b50505050905090810190601f168015610ce45780820380516001836020036101000a031916815260200191505b509850505050505050505060405180910390f35b348015610d0457600080fd5b50610d736004803603810190808035906020019092919080359060200190929190803590602001908201803590602001908080601f016020809104026020016040519081016040528093929190818152602001838380828437820191505050505050919291929050505061296e565b005b348015610d8157600080fd5b50610e7260048036038101908080359060200190929190803590602001908201803590602001908080601f0160208091040260200160405190810160405280939291908181526020018383808284378201915050505050509192919290803590602001908201803590602001908080601f0160208091040260200160405190810160405280939291908181526020018383808284378201915050505050509192919290803590602001908201803590602001908080601f0160208091040260200160405190810160405280939291908181526020018383808284378201915050505050509192919290505050612ae4565b005b348015610e8057600080fd5b50610e89612d40565b6040518082815260200191505060405180910390f35b348015610eab57600080fd5b50610eca60048036038101908080359060200190929190505050612d4d565b005b348015610ed857600080fd5b50610f86600480360381019080803590602001908201803590602001908080601f0160208091040260200160405190810160405280939291908181526020018383808284378201915050505050509192919290803590602001908201803590602001908080601f0160208091040260200160405190810160405280939291908181526020018383808284378201915050505050509192919290803560ff169060200190929190505050612e35565b005b6060806060806000600380549050604051908082528060200260200182016040528015610fc45781602001602082028038833980820191505090505b509250600380549050604051908082528060200260200182016040528015610ffb5781602001602082028038833980820191505090505b509150600090505b6003805490508110156110975760038181548110151561101f57fe5b906000526020600020906003020160000154838281518110151561103f57fe5b906020019060200201818152505060038181548110151561105c57fe5b906000526020600020906003020160010154828281518110151561107c57fe5b90602001906020020181815250508080600101915050611003565b8282945094505050509091565b60016020528060005260406000206000915054906101000a900473ffffffffffffffffffffffffffffffffffffffff1681565b60008090505b600380549050811015611422573373ffffffffffffffffffffffffffffffffffffffff166001600083815260200190815260200160002060009054906101000a900473ffffffffffffffffffffffffffffffffffffffff1673ffffffffffffffffffffffffffffffffffffffff16141561141557826040516020018082805190602001908083835b60208310151561118a5780518252602082019150602081019050602083039250611165565b6001836020036101000a0380198251168184511680821785525050505050509050019150506040516020818303038152906040526040518082805190602001908083835b6020831015156111f357805182526020820191506020810190506020830392506111ce565b6001836020036101000a03801982511681845116808217855250505050505090500191505060405180910390206001900460038281548110151561123357fe5b9060005260206000209060030201600001541480156113435750816040516020018082805190602001908083835b6020831015156112865780518252602082019150602081019050602083039250611261565b6001836020036101000a0380198251168184511680821785525050505050509050019150506040516020818303038152906040526040518082805190602001908083835b6020831015156112ef57805182526020820191506020810190506020830392506112ca565b6001836020036101000a03801982511681845116808217855250505050505090500191505060405180910390206001900460038281548110151561132f57fe5b906000526020600020906003020160010154145b156114145761135181613285565b7f0b7cea3de93a5a9ad0ccfb0e7b524ac9c8a4ea6c17e9b68e985b4ee715a5fbea8160038381548110151561138257fe5b906000526020600020906003020160020160009054906101000a900463ffffffff166003848154811015156113b357fe5b906000526020600020906003020160020160059054906101000a900460ff16604051808481526020018363ffffffff1663ffffffff1681526020018260088111156113fa57fe5b60ff168152602001935050505060405180910390a1611499565b5b80806001019150506110dd565b60001515611498576040517f08c379a00000000000000000000000000000000000000000000000000000000081526004018080602001828103825260118152602001807f4163636f756e74206e6f7420666f756e6400000000000000000000000000000081525060200191505060405180910390fd5b5b505050565b6060600380549050821015611530574263ffffffff166003838154811015156114c357fe5b906000526020600020906003020160020160009054906101000a900463ffffffff1663ffffffff1610151561152f576040805190810160405280600481526020017f74727565000000000000000000000000000000000000000000000000000000008152509050611569565b5b6040805190810160405280600581526020017f66616c736500000000000000000000000000000000000000000000000000000081525090505b919050565b60038181548110151561157d57fe5b90600052602060002090600302016000915090508060000154908060010154908060020160009054906101000a900463ffffffff16908060020160049054906101000a900460ff16908060020160059054906101000a900460ff16905085565b6060806060600080866001600082815260200190815260200160002060009054906101000a900473ffffffffffffffffffffffffffffffffffffffff1673ffffffffffffffffffffffffffffffffffffffff163373ffffffffffffffffffffffffffffffffffffffff1614151561165357600080fd5b4263ffffffff1660038281548110151561166957fe5b906000526020600020906003020160020160009054906101000a900463ffffffff1663ffffffff1611151561169d57600080fd5b6007878154811015156116ac57fe5b90600052602060002090600402016000016007888154811015156116cc57fe5b90600052602060002090600402016001016007898154811015156116ec57fe5b906000526020600020906004020160020160078a81548110151561170c57fe5b906000526020600020906004020160030160009054906101000a900463ffffffff1660078b81548110151561173d57fe5b906000526020600020906004020160030160049054906101000a900460ff16848054600181600116156101000203166002900480601f0160208091040260200160405190810160405280929190818152602001828054600181600116156101000203166002900480156117f15780601f106117c6576101008083540402835291602001916117f1565b820191906000526020600020905b8154815290600101906020018083116117d457829003601f168201915b50505050509450838054600181600116156101000203166002900480601f01602080910402602001604051908101604052809291908181526020018280546001816001161561010002031660029004801561188d5780601f106118625761010080835404028352916020019161188d565b820191906000526020600020905b81548152906001019060200180831161187057829003601f168201915b50505050509350828054600181600116156101000203166002900480601f0160208091040260200160405190810160405280929190818152602001828054600181600116156101000203166002900480156119295780601f106118fe57610100808354040283529160200191611929565b820191906000526020600020905b81548152906001019060200180831161190c57829003601f168201915b5050505050925095509550955095509550509295509295909350565b60006060600080856001600082815260200190815260200160002060009054906101000a900473ffffffffffffffffffffffffffffffffffffffff1673ffffffffffffffffffffffffffffffffffffffff163373ffffffffffffffffffffffffffffffffffffffff161415156119ba57600080fd5b4263ffffffff166003828154811015156119d057fe5b906000526020600020906003020160020160009054906101000a900463ffffffff1663ffffffff16111515611a0457600080fd5b600a86815481101515611a1357fe5b906000526020600020906003020160000160009054906101000a900463ffffffff16600a87815481101515611a4457fe5b9060005260206000209060030201600101600a88815481101515611a6457fe5b906000526020600020906003020160020160009054906101000a900460ff16600a89815481101515611a9257fe5b906000526020600020906003020160020160019054906101000a900460ff16828054600181600116156101000203166002900480601f016020809104026020016040519081016040528092919081815260200182805460018160011615610100020316600290048015611b465780601f10611b1b57610100808354040283529160200191611b46565b820191906000526020600020905b815481529060010190602001808311611b2957829003601f168201915b5050505050925094509450945094505092959194509250565b60086020528060005260406000206000915090505481565b826001600082815260200190815260200160002060009054906101000a900473ffffffffffffffffffffffffffffffffffffffff1673ffffffffffffffffffffffffffffffffffffffff163373ffffffffffffffffffffffffffffffffffffffff16141515611be557600080fd5b4263ffffffff16600382815481101515611bfb57fe5b906000526020600020906003020160020160009054906101000a900463ffffffff1663ffffffff16111515611c2f57600080fd5b81600784815481101515611c3f57fe5b906000526020600020906004020160030160046101000a81548160ff0219169083600a811115611c6b57fe5b02179055507f1d6411f23855fc73e4771269749b98d7a31416167533feb83401ef4d842aeef083836040518083815260200182600a811115611ca957fe5b60ff1681526020019250505060405180910390a150505050565b606060006060600080856001600082815260200190815260200160002060009054906101000a900473ffffffffffffffffffffffffffffffffffffffff1673ffffffffffffffffffffffffffffffffffffffff163373ffffffffffffffffffffffffffffffffffffffff16141515611d3a57600080fd5b4263ffffffff16600382815481101515611d5057fe5b906000526020600020906003020160020160009054906101000a900463ffffffff1663ffffffff16111515611d8457600080fd5b6001600088815260200190815260200160002060009054906101000a900473ffffffffffffffffffffffffffffffffffffffff169450600260008673ffffffffffffffffffffffffffffffffffffffff1673ffffffffffffffffffffffffffffffffffffffff16815260200190815260200160002054604051908082528060200260200182016040528015611e285781602001602082028038833980820191505090505b50935060009250600091505b600380549050821015611edb578473ffffffffffffffffffffffffffffffffffffffff166001600084815260200190815260200160002060009054906101000a900473ffffffffffffffffffffffffffffffffffffffff1673ffffffffffffffffffffffffffffffffffffffff161415611ece57818484815181101515611eb757fe5b906020019060200201818152505082806001019350505b8180600101925050611e34565b8395505050505050919050565b60066020528060005260406000206000915090505481565b600a81815481101515611f0f57fe5b90600052602060002090600302016000915090508060000160009054906101000a900463ffffffff1690806001018054600181600116156101000203166002900480601f016020809104026020016040519081016040528092919081815260200182805460018160011615610100020316600290048015611fd15780601f10611fa657610100808354040283529160200191611fd1565b820191906000526020600020905b815481529060010190602001808311611fb457829003601f168201915b5050505050908060020160009054906101000a900460ff16908060020160019054906101000a900460ff16905084565b606080600080856001600082815260200190815260200160002060009054906101000a900473ffffffffffffffffffffffffffffffffffffffff1673ffffffffffffffffffffffffffffffffffffffff163373ffffffffffffffffffffffffffffffffffffffff1614151561207557600080fd5b4263ffffffff1660038281548110151561208b57fe5b906000526020600020906003020160020160009054906101000a900463ffffffff1663ffffffff161115156120bf57600080fd5b60096000878152602001908152602001600020546040519080825280602002602001820160405280156121015781602001602082028038833980820191505090505b50935060009250600091505b600a8054905082101561216857856008600084815260200190815260200160002054141561215b5781848481518110151561214457fe5b906020019060200201818152505082806001019350505b818060010192505061210d565b8394505050505092915050565b6000836001600082815260200190815260200160002060009054906101000a900473ffffffffffffffffffffffffffffffffffffffff1673ffffffffffffffffffffffffffffffffffffffff163373ffffffffffffffffffffffffffffffffffffffff161415156121e557600080fd5b4263ffffffff166003828154811015156121fb57fe5b906000526020600020906003020160020160009054906101000a900463ffffffff1663ffffffff1611151561222f57600080fd5b6001600a6080604051908101604052804263ffffffff1681526020016040805190810160405280600481526020017f6861736800000000000000000000000000000000000000000000000000000000815250815260200186600781111561229257fe5b8152602001600060028111156122a457fe5b8152509080600181540180825580915050906001820390600052602060002090600302016000909192909190915060008201518160000160006101000a81548163ffffffff021916908363ffffffff16021790555060208201518160010190805190602001906123159291906132cb565b5060408201518160020160006101000a81548160ff0219169083600781111561233a57fe5b021790555060608201518160020160016101000a81548160ff0219169083600281111561236357fe5b0217905550505003915083600860008481526020019081526020016000208190555060016009600086815260200190815260200160002054016009600086815260200190815260200160002081905550837f0af89958768d306ea5f5da69236f760db56554886416af0463e500f2400145778385604051808381526020018260078111156123ed57fe5b60ff1681526020019250505060405180910390a25050505050565b6000806000806000866001600082815260200190815260200160002060009054906101000a900473ffffffffffffffffffffffffffffffffffffffff1673ffffffffffffffffffffffffffffffffffffffff163373ffffffffffffffffffffffffffffffffffffffff1614151561247e57600080fd5b4263ffffffff1660038281548110151561249457fe5b906000526020600020906003020160020160009054906101000a900463ffffffff1663ffffffff161115156124c857600080fd5b6003878154811015156124d757fe5b9060005260206000209060030201600001546003888154811015156124f857fe5b90600052602060002090600302016001015460038981548110151561251957fe5b906000526020600020906003020160020160009054906101000a900463ffffffff1660038a81548110151561254a57fe5b906000526020600020906003020160020160049054906101000a900460ff1660038b81548110151561257857fe5b906000526020600020906003020160020160059054906101000a900460ff1695509550955095509550509295509295909350565b6000600380549050905090565b606080600080846001600082815260200190815260200160002060009054906101000a900473ffffffffffffffffffffffffffffffffffffffff1673ffffffffffffffffffffffffffffffffffffffff163373ffffffffffffffffffffffffffffffffffffffff1614151561262d57600080fd5b4263ffffffff1660038281548110151561264357fe5b906000526020600020906003020160020160009054906101000a900463ffffffff1663ffffffff1611151561267757600080fd5b60066000878152602001908152602001600020546040519080825280602002602001820160405280156126b95781602001602082028038833980820191505090505b50935060009250600091505b600780549050821015612720578560056000848152602001908152602001600020541415612713578184848151811015156126fc57fe5b906020019060200201818152505082806001019350505b81806001019250506126c5565b83945050505050919050565b60056020528060005260406000206000915090505481565b60078181548110151561275357fe5b9060005260206000209060040201600091509050806000018054600181600116156101000203166002900480601f0160208091040260200160405190810160405280929190818152602001828054600181600116156101000203166002900480156127ff5780601f106127d4576101008083540402835291602001916127ff565b820191906000526020600020905b8154815290600101906020018083116127e257829003601f168201915b505050505090806001018054600181600116156101000203166002900480601f01602080910402602001604051908101604052809291908181526020018280546001816001161561010002031660029004801561289d5780601f106128725761010080835404028352916020019161289d565b820191906000526020600020905b81548152906001019060200180831161288057829003601f168201915b505050505090806002018054600181600116156101000203166002900480601f01602080910402602001604051908101604052809291908181526020018280546001816001161561010002031660029004801561293b5780601f106129105761010080835404028352916020019161293b565b820191906000526020600020905b81548152906001019060200180831161291e57829003601f168201915b5050505050908060030160009054906101000a900463ffffffff16908060030160049054906101000a900460ff16905085565b826001600082815260200190815260200160002060009054906101000a900473ffffffffffffffffffffffffffffffffffffffff1673ffffffffffffffffffffffffffffffffffffffff163373ffffffffffffffffffffffffffffffffffffffff161415156129dc57600080fd5b4263ffffffff166003828154811015156129f257fe5b906000526020600020906003020160020160009054906101000a900463ffffffff1663ffffffff16111515612a2657600080fd5b81600a84815481101515612a3657fe5b90600052602060002090600302016001019080519060200190612a5a92919061334b565b506001600a84815481101515612a6c57fe5b906000526020600020906003020160020160016101000a81548160ff02191690836002811115612a9857fe5b02179055506008600084815260200190815260200160002054837ffbe20afbd9bba79c5fddfb06009244e2f1001ad55e70989d13dfd6b6e86e156b60405160405180910390a350505050565b6000846001600082815260200190815260200160002060009054906101000a900473ffffffffffffffffffffffffffffffffffffffff1673ffffffffffffffffffffffffffffffffffffffff163373ffffffffffffffffffffffffffffffffffffffff16141515612b5457600080fd5b4263ffffffff16600382815481101515612b6a57fe5b906000526020600020906003020160020160009054906101000a900463ffffffff1663ffffffff16111515612b9e57600080fd5b6001600760a0604051908101604052808881526020018781526020018681526020014263ffffffff1681526020016000600a811115612bd957fe5b815250908060018154018082558091505090600182039060005260206000209060040201600090919290919091506000820151816000019080519060200190612c239291906132cb565b506020820151816001019080519060200190612c409291906132cb565b506040820151816002019080519060200190612c5d9291906132cb565b5060608201518160030160006101000a81548163ffffffff021916908363ffffffff16021790555060808201518160030160046101000a81548160ff0219169083600a811115612ca957fe5b02179055505050039150856005600084815260200190815260200160002081905550600160066000888152602001908152602001600020540160066000888152602001908152602001600020819055507f1b0a8ccb6c7e989ad0541a25277eb5bbad024ba0936c34028745605727f7c2838287604051808381526020018281526020019250505060405180910390a1505050505050565b6000600780549050905090565b806001600082815260200190815260200160002060009054906101000a900473ffffffffffffffffffffffffffffffffffffffff1673ffffffffffffffffffffffffffffffffffffffff163373ffffffffffffffffffffffffffffffffffffffff16141515612dbb57600080fd5b42600383815481101515612dcb57fe5b906000526020600020906003020160020160006101000a81548163ffffffff021916908363ffffffff1602179055507fba8da1901792aeed9dba7ab7bdefa7356f8641e29cd1d9281571c909ae81a05c826040518082815260200191505060405180910390a15050565b6000806000856040516020018082805190602001908083835b602083101515612e735780518252602082019150602081019050602083039250612e4e565b6001836020036101000a0380198251168184511680821785525050505050509050019150506040516020818303038152906040526040518082805190602001908083835b602083101515612edc5780518252602082019150602081019050602083039250612eb7565b6001836020036101000a0380198251168184511680821785525050505050509050019150506040518091039020600190049250846040516020018082805190602001908083835b602083101515612f485780518252602082019150602081019050602083039250612f23565b6001836020036101000a0380198251168184511680821785525050505050509050019150506040516020818303038152906040526040518082805190602001908083835b602083101515612fb15780518252602082019150602081019050602083039250612f8c565b6001836020036101000a03801982511681845116808217855250505050505090500191505060405180910390206001900491506001600360a0604051908101604052808681526020018581526020014263ffffffff1681526020016000600281111561301957fe5b815260200187600881111561302a57fe5b81525090806001815401808255809150509060018203906000526020600020906003020160009091929091909150600082015181600001556020820151816001015560408201518160020160006101000a81548163ffffffff021916908363ffffffff16021790555060608201518160020160046101000a81548160ff021916908360028111156130b757fe5b021790555060808201518160020160056101000a81548160ff021916908360088111156130e057fe5b02179055505050039050336001600083815260200190815260200160002060006101000a81548173ffffffffffffffffffffffffffffffffffffffff021916908373ffffffffffffffffffffffffffffffffffffffff1602179055506001600260003373ffffffffffffffffffffffffffffffffffffffff1673ffffffffffffffffffffffffffffffffffffffff1681526020019081526020016000205401600260003373ffffffffffffffffffffffffffffffffffffffff1673ffffffffffffffffffffffffffffffffffffffff168152602001908152602001600020819055507fea077175713e79dc43572360e83f661e6276ac4d455800fcd5c3a7165404d4ba81876000604051808481526020018060200183600281111561320157fe5b60ff168152602001828103825284818151815260200191508051906020019080838360005b83811015613241578082015181840152602081019050613226565b50505050905090810190601f16801561326e5780820380516001836020036101000a031916815260200191505b5094505050505060405180910390a1505050505050565b600454420160038281548110151561329957fe5b906000526020600020906003020160020160006101000a81548163ffffffff021916908363ffffffff16021790555050565b828054600181600116156101000203166002900490600052602060002090601f016020900481019282601f1061330c57805160ff191683800117855561333a565b8280016001018555821561333a579182015b8281111561333957825182559160200191906001019061331e565b5b50905061334791906133cb565b5090565b828054600181600116156101000203166002900490600052602060002090601f016020900481019282601f1061338c57805160ff19168380011785556133ba565b828001600101855582156133ba579182015b828111156133b957825182559160200191906001019061339e565b5b5090506133c791906133cb565b5090565b6133ed91905b808211156133e95760008160009055506001016133d1565b5090565b905600a165627a7a7230582083e25b7ba6761c99d4daed58975eb77ce5b17aacd45683671e5cb82b05dc59d70029",
  "source": "pragma solidity ^ 0.4 .23;\r\n\r\nimport './v-attachement.sol';\r\n\r\ncontract Access is VAttachement {\r\n\r\n string constant version = \"0.09\";\r\n\r\n}\r\n",
  "sourcePath": "C:/Users/nicolas/Desktop/Angular/test-smartcontract/contracts/vizyon.sol",
  "compiler": {
    "name": "solc",
    "version": "0.4.25+commit.59dbf8f1.Emscripten.clang"
  },
  "schemaVersion": "3.0.2",
  "updatedAt": "2019-03-08T15:15:09.885Z",
  "devdoc": {
    "methods": {}
  },
  "userdoc": {
    "methods": {}
  }
}